:020000023000CC
:1000000000F8002029A5030051A5030029390300A9
:1000100055A5030057A5030059A5030000000000E3
:100020000000000000000000000000005BA50300CD
:100030005DA50300000000005FA50300151203008A
:100040006D22030063A503009136030055290300C8
:100050006529030063A50300452003000D37030055
:1000600063A5030063A50300ED27030063A5030058
:1000700063A5030063A5030063A5030063A5030054
:1000800063A50300E19B030063A5030063A50300D0
:100090007D9C030063A50300B13D030063A503003D
:1000A00063A5030063A503000128030015280300CE
:1000B00063A5030063A5030000000000000000002A
:1000C00063A5030063A5030063A503007D2203006D
:1000D000911B030063A5030063A50300000000005B
:1000E0000000000000000000000000000000000010
:1000F0000000000000000000000000000000000000
:1001000000000000000000000000000000000000EF
:1001100000000000000000000000000000000000DF
:1001200000000000000000000000000000000000CF
:1001300000000000000000000000000000000000BF
:1001400000000000000000000000000000000000AF
:10015000000000000000000000000000000000009F
:10016000000000000000000000000000000000008F
:10017000000000000000000000000000000000007F
:10018000000000000000000000000000000000006F
:10019000000000000000000000000000000000005F
:1001A000000000000000000000000000000000004F
:1001B000000000000000000000000000000000003F
:1001C000000000000000000000000000000000002F
:1001D000000000000000000000000000000000001F
:1001E000000000000000000000000000000000000F
:1001F00000000000000000000000000000000000FF
:100200000348044B834202D0034B03B118477047A5
:100210004033002040330020000000000548064B1A
:100220001B1AD90F01EBA301491002D0034B03B1F4
:100230001847704740330020403300200000000082
:1002400010B5064C237843B9FFF7DAFF044B13B11E
:100250000448AFF300800123237010BD4033002019
:10026000000000001442040008B5054B1BB105490D
:100270000548AFF30080BDE80840FFF7CFBF00BFDF
:10028000000000004433002014420400A3F5803A2B
:10029000704700BF174B002B08BF134B9D46FFF75D
:1002A000F5FF00218B460F461348144A121A10F02E
:1002B00048FE0E4B002B00D098470D4B002B00D072
:1002C00098470020002104000D000D48002802D0AE
:1002D0000C48AFF3008010F0D7FE200029000EF08C
:1002E0007FFC0FF0B9FC00BF000008000000000018
:1002F0000000000000F8002040330020C8A00020CB
:100300000000000000000000BFF34F8F0549064BBE
:10031000CA6802F4E0621343CB60BFF34F8F00BFA3
:10032000FDE700BF00ED00E00400FA05052801BF6D
:10033000024A136801331360704700BF5C3300202A
:1003400008B500F0BDFD024804F025FD08BD00BF62
:100350009430002038B5044638B1044D45F001050D
:100360004FF47A40A847013CFAD138BD2030040050
:1003700008B50449044B4FF44032C3E90112FFF7BA
:10038000C3FF00BF434F494E00F8002050B108237F
:1003900003711123038040F25913C380102343805B
:1003A000002070476FF00800704708B500F05EFD50
:1003B000BDE80840012104F03DBC000013B50B4B23
:1003C0000B4A186800909B880A48ADF804306946CB
:1003D00001F082FB044630B90648012101F0CAFB56
:1003E000044801F0BBFB204602B010BD48300400B9
:1003F0002D03030040300400022808B50A460BD83C
:10040000074B084903EBC00002F03EF9002814BF77
:100410006FF01300002008BD6FF01400FBE700BF71
:100420002830040000300020022813B516D80D4AE9
:1004300052F8303002EBC004D3F810250901012333
:10044000D2B221FA02F200930021204602F0B9F95B
:10045000204602F077F9002002B010BD6FF01400C2
:10046000FAE700BF28300400022810B50BD8074C6B
:1004700004EBC004204602F07FF910B1204602F0E0
:100480006FF9002010BD6FF01400FBE72830040066
:100490004FF0FF3070474FF0FF3070476FF025008E
:1004A00070476FF01700704708B54FF01023D3F86E
:1004B0000022013203D1D3F80432013325D0134B8B
:1004C0000122C3F80425D3F80024002AFBD04FF002
:1004D00010224FF0FF31C2F80012D3F80024002A96
:1004E000FBD04FF010234FF0FF32C3F80422074B2C
:1004F000D3F80024002AFBD00022C3F80425D3F847
:100500000024002AFBD0FFF7FFFE08BD00E00140F9
:1005100008B54FF01023D3F80C32DB071DD50F4B75
:100520000122C3F80425D3F80024002AFBD04FF0A1
:100530001022D2F80C3223F00103C2F80C32074B20
:10054000D3F80024002AFBD00022C3F80425D3F8F6
:100550000024002AFBD0FFF7D7FE08BD00E00140D1
:100560000278034B12B901221A7070470222FBE78E
:100570006C3000200278034B12B901225A70704788
:100580000222FBE76C3000200128F8B504461FD892
:10059000104E335CE3B1104D05EBC005284602F068
:1005A00087FA0E4A0E4952F82420002301EB041169
:1005B0002846335502F0DEF90746284602F04CFA89
:1005C00027B1BDE8F840074810F0F0B901233355D2
:1005D000F8BD00BF12360020743B04006C3B0400E1
:1005E0004C3000204E30040001282DE9F041044633
:1005F00075D83E4E335C002B74D1302964D03ED880
:100600000639CBB2122B56D80E2954D8DFE801F0A8
:100610005653085308530853535308535353080071
:100620004FF08043324F334807EB04152946AB6047
:1006300000232A7300EBC4001A464FEA041801F0A5
:1006400049FE002846D117F808200123335502F54A
:10065000E0724FF0A04340F2033143F822106A7871
:1006600002F5E07240F20F3143F82210AA7802F549
:10067000E0724FF4417143F82210BDE8F08178290F
:100680001FD012D850291FD008D832291CD03C299D
:1006900014BF4FF000534FF08053C3E7642914BFD9
:1006A0004FF000534FF00063BCE7C8290FD0F0298A
:1006B0000DD09629F3E74FF00053B3E74FF0004316
:1006C000B0E74FF00063ADE74FF08053AAE74FF07B
:1006D0008063A7E7002333556FF00200CDE76FF08A
:1006E0000B00CAE76FF00C00C7E700BF1036002010
:1006F0002C3000205C3B0400012838B504460AD8A1
:10070000084D2B5C53B1084800EBC40001F0C0FE5B
:100710000020285538BD6FF00B00FBE76FF00D008F
:10072000F8E700BF103600205C3B04002DE9F047DD
:10073000044688461AB1012A0BD0022A12D0012C95
:100740004ED8294E335D03F0FF099BB10020BDE870
:10075000F087264A02EB001103010F2048601021A8
:10076000D150ECE7214A02EB00110301162048604A
:100770001721F5E71D4800EB04154FF0A0436A6808
:1007800002F5E07240F20C71270143F82210C259C1
:10079000174F02F5E07207EBC40A43F82210154A1E
:1007A0004B4652F824202946504602F0E3F890B90F
:1007B000504602F051F9B8F1000F09D14FF0CC7357
:1007C00057F83420AB60C2F8243501233355BDE718
:1007D0004FF0C863F4E706F804906FF00200B6E744
:1007E0006FF00F00B3E700BF123600204C3000203E
:1007F000743B04006C3B04000022FFF797BF00002D
:10080000012870B504460ED80A4E335C73B10A4D08
:1008100005EBC005284602F02FF9284602F048F9FA
:100820000020305570BD6FF00F00FBE76FF0100037
:10083000F8E700BF12360020743B04002DE9F041B8
:1008400086B000AF16463A8E0D46194602F10803EF
:100850000446DB086846A0EBC303012C02F1010843
:100860009D4642D8244B1B5D002B41D0684600F8C2
:10087000016B10F08DFC14220021381D10F061FB7B
:10088000012C7D71C7F80880C7F810D005D11B4D29
:10089000284602F049F90028FAD11948194E0023D8
:1008A0000122391D00EBC400335502F047F905461B
:1008B00000F08EFD386000F08BFD3B68C01AB0F58B
:1008C0007A7F01D2335D6BB1335D012B02D02046BC
:1008D000FFF75AFE281E18BF012040421837BD46B8
:1008E000BDE8F0810AF0BEFBE5E76FF00F00F5E729
:1008F0006FF01000F2E700BF123600207C3B0400CE
:10090000743B04006C30002070B588B001280546A7
:100910008DF807203BD8214A125C002A3AD00222E7
:100920008DF80C2001220492BDF8302005921C4E57
:100930008DF80D100DF10702CDE906230023335485
:100940001848122203A900EBC50002F0F7F804468C
:1009500000F03EFD029000F03BFD029BC01AB0F596
:100960007A7F09D3735D012B0CD02846FFF70CFE6C
:100970006FF0010008B070BD735D002BF2D10AF07A
:1009800071FBE8E7201E18BF01204042F2E76FF03C
:100990000F00EFE76FF01000ECE700BF1236002009
:1009A0006C300020743B0400F0B5012887B0054688
:1009B0000F4614461E462FD81A4B1B5C7BB31422DD
:1009C000002101A810F0BDFA17480296174E0494B2
:1009D0000023012201A900EBC50073558DF80570B5
:1009E00002F0ACF8044600F0F3FC009000F0F0FCDC
:1009F000009BC01AB0F57A7F02D2735D002BF5D050
:100A0000735D012B02D02846FFF7BEFD201E18BFE4
:100A10000120404207B0F0BD6FF00F00FAE76FF021
:100A20001000F7E712360020743B04006C30002001
:100A3000F0B5012887B005460F4614461E4634D847
:100A40001D4B1B5C002B33D0122200210DF1060040
:100A500010F077FA194802960123194E8DF80430E8
:100A60000222002301A900EBC500735504948DF800
:100A7000057002F063F8044600F0AAFC009000F054
:100A8000A7FC009BC01AB0F57A7F02D2735D002BE1
:100A9000F5D0735D012B02D02846FFF775FD201EAF
:100AA00018BF0120404207B0F0BD6FF00F00FAE719
:100AB0006FF01000F7E700BF12360020743B04000F
:100AC0006C3000202DE9F04F85B000AF0128B7F859
:100AD00038B0BB60FA7363D8344B1B5C002B62D018
:100AE000334B5D5C6B1EDBB2FD2B26D84FF0A04371
:100AF00005F5E072032143F82210DFF8BC900122D3
:100B00004FEA001A02FA05F507F10F01C3F80C5578
:100B100049F80A10274909EB001401EBC00862608C
:100B2000214600224046C4E9022201F0F3FC0646B9
:100B300048B14FF0A043C3F808554FF0FF301437C9
:100B4000BD46BDE8F08FC4E901B0BB68E060024675
:100B50002146404649F80A3001F0DCFC102816D145
:100B60000BF107036A46DB08A2EBC303C7F804D006
:100B70009D46B9685A46684610F00AFB324621463F
:100B8000404649F80AD001F0C5FCD7F804D0003837
:100B90004FF0A04318BF0120C3F808554042CEE7EC
:100BA0006FF00B00CBE76FF00D00C8E710360020A8
:100BB000BF3000205C3B0400F03500202DE9F347F6
:100BC00001281F468DF8072045D8264B1B5C002BBB
:100BD00044D0254B5D5C6B1EDBB2FD2B24D805F5A4
:100BE000E073DFF88C804FF0A046032246F8232004
:100BF00008EB0014012303FA05F5C6F80C556360F1
:100C00001A4B4FEA00190DF1070203EBC00A48F82E
:100C10000920214600225046C4E9022201F07AFC54
:100C2000024630B1C6F808554FF0FF3002B0BDE8BB
:100C3000F087C4E9010748F80900BDF82830E360EF
:100C40002146504601F066FC003818BF0120C6F866
:100C500008554042EAE76FF00B00E7E76FF00D0040
:100C6000E4E700BF10360020BF3000205C3B0400EA
:100C7000F0350020BFF34F8F0549064BCA6802F4D8
:100C8000E0621343CB60BFF34F8F00BFFDE700BFAF
:100C900000ED00E00400FA0504230B70704700002B
:100CA000024B53F8203003B118477047D83C00205E
:100CB00010B50220FFF7D8FB1A4B00241C601A4B1A
:100CC0001C601A4B19781C700229CAB20CD0032A76
:100CD00023D0012A25D1164804F045FA14483221C0
:100CE00004F0CFFAFFF7C6FF12480FF0C7FE01214C
:100CF0000F4804F0D4FA0A210D4804F0C2FA20216A
:100D00000B4804F0E5F90A21094804F0BAFA214633
:100D10000748BDE8104004F0C2BA074B074A5A60C2
:100D2000E0E710BDD03C0020CC3C0020D43C0020AB
:100D3000A43000206430040000F80020424F4F54DB
:100D40007FB5294800238DF80F304378012B01D15E
:100D500004F066FB244804A904F0DDF99DF8103086
:100D600013B9214804F0C4FB1F480DF10F0104F032
:100D700001FB78BB9DF80F000EF0A0FA18A3D3E991
:100D800000230EF005FB194B00220EF02BFC184B34
:100D900000220EF0FDFA0EF095FD80B207EE900AEB
:100DA000DFED146A144AF8EE677A87EEA67AF0EE61
:100DB000087A37EE677ADFED116AC7EE267A9FED83
:100DC000107A67EE877AFCEEE77ACDED017A9DF82E
:100DD0000430137007B05DF804FB00BFAFF3008070
:100DE000CDCCCCCCCCCC1040A4300020000059405D
:100DF00000408F4000007A44C83C00209899993FF9
:100E00000000C84207B5002301A90348019304F07C
:100E100055FA03B05DF804FBA430002070B50E4B0A
:100E20000E4D1B680E4C2B6023780E4E3BB12B6889
:100E300032689B1AB42B0ED90220FFF715FB2B68E2
:100E40003360237808490133DBB22370BDE870407A
:100E50000220FFF7E9BA70BD603D0020D03C0020C1
:100E6000D43C0020CC3C002040420F00014B1878BD
:100E7000704700BFC83C002008B50E490E4807F077
:100E8000D1FEB0B10D480FF0F9FD0A490A4807F04C
:100E900065FE002802DA032002F020FD054906481D
:100EA00007F0C0FE002804DABDE80840032002F085
:100EB00015BD08BD843B0400A83A0020783004002A
:100EC00008B5054807F0ACFE002804DABDE8084084
:100ED000032002F003BD08BDA83A002030B5144B32
:100EE0001B5C581EC0B2FD281ED861B9002A0CBF79
:100EF0000122032203F5E0734FF0A041920041F874
:100F00002320002030BD0129FBD14FF0A04003F584
:100F1000E074032540F82450994012B9C0F80C152C
:100F2000EFE7C0F80815ECE74FF0FF30EAE700BF45
:100F3000BF300020114B185C431EDBB2FD2B17D8CD
:100F40005AB9C1B100F5E0704FF0A04353F820301A
:100F500003F001030B70002070474FF0A043D3F85B
:100F60001035C34003F0010313700029F3D0E9E703
:100F70004FF0FF3070476FF008007047BF3000201F
:100F800038B50F4B1C5C631EDBB2FD2B0D4616D82B
:100F90001AB90C4B03221A7005E0012A01D1094B42
:100FA000F9E7022AFBD0084A0649204600F03CFF38
:100FB0000121204600F0AEFF044B43F8245038BD19
:100FC000BF300020BC300020A10C0300D83C002022
:100FD0007FB505460E46002900F09E80514B0093D8
:100FE000514B0193514B1B680293514B1B788DF869
:100FF0000C3000F0ABFB041E18BF0124002064007D
:1010000000F0D4FC08B144F00404002000F0BAFB66
:10101000002000F03FFC00F031FC18B900F074FC37
:101020000028F8D0FFF7CAF908B144F020044FF0C7
:10103000E0234FF6FF125A613E4AE02182F8231066
:1010400000229A6107221A6100F0BAFE08B144F04A
:101050001004394B1B68002158680FF017FD5CB174
:1010600014F0060F00D0FEE714F4F87F04D06FF000
:101070001804204604B070BD04F05CFA04F086FA4F
:101080002E4804F08DF82E490120FFF7B5F900280D
:10109000EDD12C490120FFF7C7F92B4803F0BEFE24
:1010A000FFF702FA29490220FFF7A6F904460028B3
:1010B000DDD1014601221B20FFF710FF2449022247
:1010C0001B20FFF75DFFFFF723FA32682146204619
:1010D00004F08AFC18BB022D02D1684603F0DAFB4B
:1010E000002206211046FFF77FFA04460028BED1F1
:1010F00004F024FCFFF7C0FE022D01D008F01AFF17
:10110000144A1548012108F045FF00224FF4203110
:10111000124808F051FFACE76FF00804A9E76FF040
:101120002A04A6E7990C0300AB0303005C3D0020F2
:10113000E030002000ED00E07C310020A4300020F1
:10114000410D030040420F0094300020B10C030019
:101150001D0E0300050E0300DC3B0400A83C00202C
:1011600010B5094A145C621ED2B2FD2A0BD8074A98
:10117000002142F82010204600F02EFF2046BDE856
:10118000104000F007BF10BDBF300020D83C002049
:1011900010B560B909490A4C0A88238892B29BB2FB
:1011A0009A4203D220880B88C01A80B210BD022850
:1011B00002D1044B1868F8E70020F7E7384B00200D
:1011C0003A4B002050430020022803BF024B1878FE
:1011D000C0B20020704700BF653D002003460846AE
:1011E00011460BB904F06ABC022B01D103F0EEBC2E
:1011F000704708B50346084611461BB9BDE80840CC
:1012000004F030BC022B03D103F0F8FC80B208BD1F
:101210000020FCE7024A136801331360704700BFE7
:10122000603D0020431E012B70B50D4614460BD8BF
:10123000002603E0012104F041FC0136A64205EB43
:101240000600F7DB204670BD03380428FAD81346A1
:101250000A460449542404FB0011BDE870400248CA
:1012600007F048BEB0380020A83A002070B5044608
:101270001346084674B90E4D0E492C880A88A4B24C
:1012800092B2A41A9C42F8DB99B204F0EBFB03463D
:10129000184670BD033C042CFAD80A46064954206F
:1012A00000FB0411BDE87040044807F0EFBD00BF2B
:1012B0003A4B0020384B0020B0380020A83A0020DC
:1012C000F7B50E461A4905460FF006FF30B9002E55
:1012D0000CBF09240824204603B0F0BD154F3B681D
:1012E000052B02DD4FF0FF34F5E7134A0023D15CF4
:1012F000A9B90121D154DC1C104BE21E542101FB81
:1013000002310F4B00937EB901230E482A4607F0A5
:101310008BFD0028E6DB3B6801333B60DBE70133F4
:10132000052BE4D10024E7E740F20313EDE700BF0B
:101330008F300400A4380020A8380020B0380020E6
:10134000D03B0400A83A00200B4B10B55421C41E1A
:1013500001FB0431094807F081FD0028A1BF084BBB
:10136000084A00201855A3BF136803F1FF33136028
:101370004FF0FF3010BD00BFB0380020A83A002069
:10138000A8380020A43800204FF0FF3070474FF0FD
:10139000FF3070474FF0FF30704770474FF0FF301D
:1013A00070470000B1FA81F252095242012808B593
:1013B000D2B202D0022800D020B90146034803F07F
:1013C000ADFC08BD6FF00700FBE700BF94300020C4
:1013D000014B1868704700BF603D00204FF0E023CC
:1013E000F0B59869D3F8042D144D154E03F55063EC
:1013F000510158BF5B6A296854BFC3F3C02301235E
:101400004FF0E0247268520156BF726A0122C2F3A3
:10141000C022934210D12F68B9420DD1A7698742EB
:101420000AD86269121A0B44C2F38B124FF47A7015
:1014300000FB03200021F0BD1346E3E7603D0020E0
:1014400000ED00E007B580238DF80430B1F5487F4A
:101450004FF000038DF806300FD9A1F548716423D1
:10146000B1FBF3F1C9B289008DF805100199054867
:1014700003F0B8FD03B05DF804FB09B98DF8041062
:101480000021F0E7A4300020704713B50023044684
:101490000DF107008DF8073002F0E6F904B1A0471E
:1014A0009DF8070002F004FA02B010BD4FF070433F
:1014B00093F8E02F062A10D1D3F8E42F12070CD1AD
:1014C000D3F8E80F00F0F003302B08D000F0E00074
:1014D000A0F1400358425841704700207047012056
:1014E00070474FF0704393F8E02F062A0CD1D3F8E1
:1014F000E42F120708D1D3F8E80F00F0F000A0F1B4
:1015000030035842584170470020704708B5FFF734
:10151000CDFF40B14FF080536C4AD3F82433C3F36E
:101520000423C2F84035FFF7DCFF10B1684B694A6D
:101530005A67FFF7BBFF48B14FF080534FF080422E
:10154000D3F84432C3F34233C2F83C35FFF7C9FF46
:1015500030B1614AD2F8FC3023F08073C2F8FC301D
:10156000FFF7A4FF40B14FF080430022C3F80C21E5
:10157000C3F81021C3F83825FFF7B3FF20B14FF0AF
:1015800080430322C3F8A025FFF7ABFF60B1534BA4
:101590000522C3F810260122C3F888260022C3F8CA
:1015A00018263F22C3F814264FF0704393F8E02F1B
:1015B000062A50D1D3F8E42F11074CD1D3F8E83FD5
:1015C00003F0F003502B46D14FF08052444BD2F839
:1015D0000414C3F82015D2F80814C3F82415D2F85F
:1015E0000C14C3F82815D2F81014C3F82C15D2F82F
:1015F0001414C3F83015D2F81814C3F83415D2F8FF
:101600001C14C3F84015D2F82014C3F84415D2F8BE
:101610002414C3F84815D2F82814C3F84C15D2F88E
:101620002C14C3F85015D2F83014C3F85415D2F85E
:101630003414C3F86015D2F83814C3F86415D2F81E
:101640003C14C3F86815D2F84014C3F86C15D2F8EE
:101650004424C3F87025FFF729FF48B14FF08053A9
:101660004FF08042D3F8583203F04F03C2F8E43E03
:10167000FFF71CFF48B14FF08043D3F80024D20796
:1016800044BF6FF00102C3F800244FF08053D3F839
:101690003021062A0AD1D3F83431062B01BF114A72
:1016A000D2F83C3743F48063C2F83C370A4AD2F898
:1016B000883043F47003C2F88830BFF34F8FBFF314
:1016C0006F8F094B094A1A6008BD00BF0030014006
:1016D00000C007400DF0ADBA00ED00E00050004042
:1016E00000C0004000100040083100200090D003EE
:1016F00042DF704744DF704738B5074C051EA4F140
:10170000080308BF1C4623682BB11A6822605B6877
:1017100028469847F7E738BD0840002020B9054B18
:1017200001225A70FFF7E8BF012802D1014A9070E8
:10173000F8E77047F83F002020B9034B01225A70A8
:10174000FFF7DABF704700BFF83F002038B50B4CF9
:10175000237883B90A486360A3602361E36000F0E3
:1017600071FA054602F00AFB08B900F077FA012386
:101770002370284638BD8525FBE700BFF83F0020D1
:101780001D17030037B5184CA378054603F0FF0278
:101790009BB110B143680120984700230DF1070069
:1017A0008DF8073002F060F8E3680133E3609DF8DC
:1017B000070002F07DF803B030BD0DF107008DF891
:1017C000072002F051F825B1226913463BB92A607F
:1017D0002561E368002BE7D100F058FAE4E79D4269
:1017E000F7D01B68F2E700BFF83F002037B50B4C7D
:1017F00000230DF107008DF8073002F035F8E3689B
:10180000013BE360E56815B900F068FAA5709DF842
:10181000070002F04DF803B030BD00BFF83F0020D4
:10182000012813B508D003281CD018B9114B012288
:10183000C3F8802002B010BD0F4C00230DF107004B
:101840008DF8073002F010F823780BB9FFF77EFF10
:10185000E3689DF807000133E3600123A37002F001
:1018600027F8E7E700F0FAF902B0BDE81040FFF70B
:10187000BDBF00BF00E100E0F83F002008B502F066
:101880007DFA28B94FF08043D3F81804C0F3004024
:1018900008BD000037B51B4C6378054603F0FF0216
:1018A0009BB110B143680020984700230DF1070059
:1018B0008DF8073001F0D8FF6368013363609DF84D
:1018C000070001F0F5FF03B030BD0DF107008DF802
:1018D000072001F0C9FF25B1A268134653B92A6059
:1018E000A5606368002BE7D102F048FA30B1FFF73A
:1018F000FFFEE1E79D42F4D01B68EFE700F0F7F947
:10190000DAE700BFF83F002007B502F037FA48B128
:1019100001A8FFF7EFFE0198003818BF012003B0BF
:101920005DF804FB4FF08043D3F80C0400F0011085
:10193000A0F1011358425841F1E736DF7047012802
:1019400010B504D100F03AFCBDE81040004710BDCE
:10195000012813B5044603D0032813D002B010BDEC
:1019600000230DF107008DF8073001F07DFF00F036
:1019700025FC10B12046FFF7E0FF9DF8070001F0BD
:1019800097FFEBE7084BC02283F800230122C3F83E
:1019900080211A6000F012FC0028DFD04FF0804355
:1019A0000422C3F80423D9E700E100E038B50B4D69
:1019B0002B7804466BB902F0E1F960B9084B002CB2
:1019C00014BF2046184600F0FFFB08B901232B7016
:1019D00038BD8520FCE70820FAE700BF0C40002056
:1019E000E03B04001FB503788DF800304368019395
:1019F000037A8DF80830C368054A0393054B68469F
:101A000053F8213052F82110984705B05DF804FBD7
:101A100010400020144000201FB503788DF80030DE
:101A20004368019383688DF80830C368054A0393BF
:101A3000054B684653F8213052F82110984705B0FD
:101A40005DF804FB1040002014400020F0B5194B55
:101A500090F800C091F81DE043F82C20164B164674
:101A60000A6943F82C20154B0C4603F80CE0074696
:101A70000FCC89B06D460FC594E80F0085E80F00C4
:101A8000CDF810C0BEF1000F09D0002E0C4A6946F7
:101A900008BF3246381D01F015FA09B0F0BD002E1E
:101AA000084A694608BF324607F10C0001F070FC95
:101AB000F3E700BF14400020104000200D4000203C
:101AC000E5190300191A03000023435082B043585C
:101AD0000193019B02B07047F0B51D4B44791D4E38
:101AE00043F8242004EB44036500F35C73BB90F9D6
:101AF00004308A78002BADBF03F16047164F03F026
:101B00000F0C07F561474FEA4212D2B2B4BF07F893
:101B10000C2087F8002303F01F025B099B0003F1F0
:101B2000604303F56143012707FA02F2C3F88021FD
:101B30001A6003680A88C3F808252B19F218087977
:101B4000F754C978507091700020F0BD0820FCE770
:101B50001C4000201840002014ED00E00368012222
:101B60001A604379024A03EB43030221D1547047C0
:101B70001840002008B500680A464FF48271FFF74C
:101B8000A3FF0223C0F844330AB1C0F8043308BDF0
:101B90002DE9F041234E244FDFF8908000254FF4CB
:101BA0008034D7F8043323420FD033686BB1A6F5E5
:101BB0008041C7F848433846C7F8084389B2FFF761
:101BC00083FFD8F80030E8B298470135042D4FEA7A
:101BD000440406F10406E4D1134CD4F80433DA07C4
:101BE0000BD5D4F8003143B120464FF48071FFF794
:101BF0006BFF0E4B28461B689847D4F804339B07AD
:101C00000DD5D4F8043153B107484FF48271FFF772
:101C10005BFF064BBDE8F0411B6805201847BDE897
:101C2000F08100BF40410240004002401C400020C3
:101C300000F18040002382B0036003680193019BA0
:101C400002B07047044B0246187918B91A60012295
:101C50009A8070478520704724400020094B1A68FD
:101C6000D20706D4C02283F800230122C3F88021C2
:101C70001A604FF080420123C2F81835024A1370EF
:101C8000704700BF00E100E02040002038B54FF46D
:101C90008270FFF7CDFF4FF080430222C3F8042388
:101CA0000C4AD2F8FC0040F08073C2F8FC300A4BBA
:101CB0001C6844F0010119605D685968491BB1F561
:101CC0000A5FFAD31C604FF08043C2F8FC00012287
:101CD0009A6038BD00ED00E0001000E04FF0804356
:101CE0000122DA60D3F81824D203FBD4704708B578
:101CF0004FF48070FFF79CFF4FF080430122C3F840
:101D000004231A6008BD00004FF0804110B5D1F8DF
:101D1000003163B14FF48070FFF78AFF0D4B5879A3
:101D20000122C1F8082310B95A711B6898474FF077
:101D30008042D2F8043163B14FF48270FFF778FF2C
:101D40000223C2F80833034BBDE810401B68012092
:101D5000184710BD2440002000F1804000F5C0402D
:101D6000002382B0036003680193019B02B07047B7
:101D7000800000F1A040D0F8003723F44033C0F8D1
:101D80000037D0F8003743EA0143C0F80037704706
:101D9000C208012300F007008340885C03438B5492
:101DA00070470000054B4FF0FF32072843F8202012
:101DB00084BF1B1883F84820704700BF2C400020C8
:101DC00038B5154D95F8584024BB2022FF2105F168
:101DD00030000FF0B6F8E0B20134FFF7E3FF0C2C4F
:101DE000F9D10E4B00221A600D4BC02183F8061367
:101DF0004021C3F880114FF4BE701960FFF7ACFFAB
:101E0000084B4FF00041C3F80413012385F8583004
:101E1000104638BD0820FCE72C4000208040002000
:101E200000E100E0006000402DE9F041DFF8E080D3
:101E300008EB0003044693F93030002B0F4663DAB9
:101E40008978C1F3400100290BBF082300230C2629
:101E50000826B34202D10420BDE8F08158F82300DF
:101E600001304FEA83053AD108EB04005EB248F82E
:101E7000232080F8306011B9434483F84840BB7890
:101E800059070ED4DA072CD5A30003F1A043D3F8E9
:101E9000002722F00202C3F800271C492046FFF762
:101EA00077FFBB783A789B0724D505F1804303F58B
:101EB000C0432402D3F8101521F4473121F44071B6
:101EC000C3F810151204D3F8101504F4F85402F4F2
:101ED000403214430C43C3F810450020BCE70133E3
:101EE000B7E77A7804F5E0734FF0A041920041F82B
:101EF0002320D2E7083E48FA86F696F8503043EAA7
:101F0000821386F85030E8E70820A5E780400020DB
:101F10002C40002010B51D4C231893F93020072ABF
:101F200016DD144494F848309B09032B0BD14FF075
:101F3000A043D3F81015C14001F001010231BDE802
:101F40001040FFF715BF012B0CBF02210321F6E75C
:101F5000D3B2072B19D8930003F1804303F5C04394
:101F6000D3F8100540F00100C3F8100502F140005D
:101F7000800080B2FFF7F0FE39B154F8223023B16F
:101F800001239340024AC2F8043310BD2C400020C4
:101F9000006000400E4B034493F93020072A02DD15
:101FA0000021FFF7E5BED3B2072B0FD8930003F152
:101FB000804303F5C043D3F8101521F00101C3F8A5
:101FC000101501239340034AC2F80833704700BF3D
:101FD0002C40002000600040F8B50446FFF7DAFF0F
:101FE00015490A1992F9303092F83020072A9FBF1C
:101FF000124A03F5A273002042F8230004F00702FE
:10200000012393400E48E208855C1D420AD004F586
:10201000E0754FF0A046022746F82570855C25EA5A
:1020200003038354214491F83000FFF7BBFEFF23E4
:1020300081F83030F8BD00BF2C4000200060004027
:10204000804000202DE9F04F87B00024584D0394C4
:102050004FF48072012102F1804303F5C0431B68F5
:10206000012B07D1D5F80433194203D090B2FFF702
:1020700073FE0C430432B2F5907F4FEA4101EAD17E
:102080004B4BD3F87C31012B0AD14FF4BE70FFF7D4
:1020900063FE4FF0A04344F00044D3F8103503939F
:1020A000E3B2D3B1434F01260025344210D0AB0038
:1020B00003F1804303F5C043D3F81005D3F810159E
:1020C00057F8253023B1C1F30141C0F304209847EC
:1020D0000135082D4FEA4606E7D1002C64DA0022CC
:1020E0004FF0FF33CDE90423DFF8C890DFF8C88054
:1020F0000026374618F9014F631C46D0C4F3C203CB
:1021000018336B440122E5B204F03F0A04F00704DF
:1021100002FA04F413F8042C224236D009EB0A0226
:10212000AD0992F9302059F822B0BBF1000F08D167
:10213000032D2AD104A950460193FFF729FE019BE4
:1021400001E0032DF6D00AF5E0714FF0A04213F83C
:102150000C3C52F821102342C1F3014105D0022961
:1021600013D1032D0BD1294604E003290DD1032DF2
:1021700005D102215046FFF7FBFD0136F6B2BBF157
:10218000000F02D029465046D8470137042FB1D15D
:1021900056B14FF0A043039AD3F810359A4203D0BA
:1021A0000393049B0593A1E707B0BDE8F08F00BF40
:1021B000006000402C4000207B400020014B18684C
:1021C000704700BF8C4000200D4A1378ABB90378EC
:1021D0004FF0804103F00103C1F87835094B1968CD
:1021E000C90706D4C02183F800130121C3F8801168
:1021F000196001231370002070478520704700BFCD
:102200009040002000E100E04FF0804310B5D3F88B
:102210000443610708D5D3F808212AB10022C3F886
:102220000821104B1B689847A2060AD54FF080433F
:10223000D3F814212AB10020C3F814010A4B1B68FB
:10224000984763060DD54FF08043D3F8182142B16B
:102250000022C3F81821044BBDE810401B68012080
:10226000184710BD8C4000208840002008B5FFF7BB
:10227000CBFFBDE80840FFF747BD0000124BD3F885
:10228000182182B0EAB10022C3F81821D3F818311E
:102290000193019B0D4BD97FFF2907D0987F012225
:1022A0008A404FF0A04148B1C1F80C2500225A776E
:1022B0001A72D3E90021064802B01047C1F8082578
:1022C000F4E702B0704700BF0030024094400020A5
:1022D0009C4000202DE9F74F90F80480694E019250
:1022E0004FF0240909FB08F906EB090B9A469BF805
:1022F0001C3007460C46002B40F0C0800568624940
:10230000284601F0CBF9002840F0BA80019B46F83E
:102310000930CBF804A094F800C0217B4FF0A04214
:10232000012303FA0CF3012994BFC2F80C35C2F85B
:1023300008350CF5E0734FF0010E42F823E06378A6
:10234000FF2B1FBF0EFA03FEC2F80CE503F5E07E7B
:102350004FF0030918BF42F82E90A27808BF4FF043
:10236000FF33FF2A1FBF02F5E07E4FF0A04A4FF077
:10237000040B4AF82EB04FF0240E0EFB086E18BF67
:1023800091468EF82020E2788EF81F2008BF4FF08B
:10239000FF39FF2A19D094F804A04FF0010B0BFA73
:1023A00002FB4FF0A04EBAF1000F37D0CEF80CB5BB
:1023B00002F5E0724FF0030B4EF822B0314A4FF0B5
:1023C000240E0EFB082282F81EA0C5F808C5C5F829
:1023D0000C35A368C5F81095C5F82435637B003B20
:1023E00018BF012302291CD003291DD0012901D1C6
:1023F00043F00203C5F85435019AA379C5F8C035F6
:102400000723A2B9C5F80035242303FB086600237F
:1024100073770123337703B0BDE8F08FCEF808B5AA
:10242000C6E743F00403E5E743F00603E2E7402292
:10243000C5F80423C5F800353B68627943F30733D8
:10244000002BADBF03F16041104903F00F0401F50B
:1024500061414FEA4212D2B2B4BF0A5581F800235B
:1024600003F01F015B099B0003F1604303F5614327
:1024700001228A40C3F880211A60C5E70820CAE714
:102480001120C8E7944000207D22030014ED00E0F5
:10249000F8B505791C4C006824236B43E618E35813
:1024A000D3B140F307335A09184F03F01F0301213A
:1024B000203201FA03F347F82230154BC0F80833F5
:1024C000737F4BB14161D0F80431002BFBD0242342
:1024D00003FB054300225A77242303FB0543002610
:1024E00093F82030FF2B1FBF03F5E0734FF0A0429D
:1024F000022142F82310C0F8006501F0EFF8242310
:1025000003FB05442677F8BD9440002000E100E07D
:10251000520108002DE9F74390F804C0454E2423EA
:1025200003FB0CF31546F2180C46517F8646002932
:102530007DD156F80380B8F1000F04D015F0140FC8
:1025400004BF0123537794E80F00242707FB0C678F
:1025500007F10C0989E80F00FA7FFF2A07D0B87F3E
:10256000012393404FF0A041D0B1C1F80835206855
:10257000DEF8003020B100F06041B1F1005F06D11B
:10258000A16881B101F06047B7F1005F0BD024234F
:1025900003FB0C6300225A77102003B0BDE8F083E0
:1025A000C1F80C35E3E76768C3F84405C3F848751C
:1025B000E068C3F834150021C3F83805C3F81811D2
:1025C000D3F818110191019915F0010118BF0121EB
:1025D000C3F8501515F0020118BF0121C3F84015CA
:1025E00029075CBF01211961B8F1000F15D1D3F89B
:1025F00018110029FBD0FF2A0AD00123934024227E
:1026000002FB0C664FF0A042B17F19B1C2F80C3545
:102610000020C2E7C2F80835FAE715F0040F4FF0C2
:10262000400214BFC3F80823C3F80423F0E71120C5
:10263000B3E700BF944000202DE9F347002406468D
:102640000F46904600F5A0754FF48039A2462B68DE
:102650008BB1D6F8043309FA04F21A420BD0C5F84C
:1026600000A02B680193A000019B00F5A07398B215
:10267000D7E9003198470134444505F10405E6D116
:1026800002B0BDE8F0870000F7B505792B4C0C26A9
:102690006E43A7193B7A002B4ED1A2514A687A604B
:1026A000467902681F46D8B286423CD842F30733C7
:1026B000C878002BADBF03F16046214E03F00F0731
:1026C00006F561464FEA4010C0B2B4BFF05586F837
:1026D000000303F01F005B099B0003F1604303F557
:1026E0006143012606FA00F0C3F8800118604878BB
:1026F000D2F8043560F30103C2F804358878D2F8C3
:10270000083560F30103C2F808350978D2F81035AE
:1027100061F30303C2F810350C2303FB05440020CA
:10272000267203B0F0BD980000F5A0700133175079
:10273000105801900198B6E70820F2E7B840002051
:1027400014ED00E0036801221A600279034B0C21AA
:1027500001FB023302221A72704700BFB84000200A
:10276000036801221A610179024B0C2000FB01333E
:102770001A727047B84000200279044B0C2101FB0B
:102780000233187A831E584258417047B8400020DF
:1027900037B54FF4803400688C407BB101F15003B1
:1027A0009B000025C550C3580193019BC0F804430A
:1027B00001F5A87140F8212003B030BDC0F80843EE
:1027C000F6E770B4046840F20116D4F800528E4067
:1027D00025EA0605C4F80052D4F800522B43C4F889
:1027E00000329DF80C3070BCFFF7D2BF024903489D
:1027F0000422FFF721BF00BFB840002000A0004026
:10280000024903480622FFF717BF00BFC44000205B
:1028100000A00140024903480622FFF70DBF00BF98
:10282000D040002000B001400023435082B0435804
:102830000193019B02B07047F0B5D0F8243187B006
:1028400004460D469BB14FF49271FFF7EDFFD0F8AF
:10285000043163B9AB68C0F808330223AB60AB68DE
:10286000C0F8043301230362436107B0F0BDD4F81C
:10287000043193B34FF48271204605F10C07FFF742
:10288000D3FF0FCF01AE0FC695F82E203B68336003
:1028900072B12B7B012B0CBFD4F83C15D4F84C152E
:1028A0000291022B0CBFD4F83C35D4F84C3503937D
:1028B0004FF4B0712046FFF7B7FF4FF4AE71FFF74A
:1028C000B3FF95F8303003B1CAB10023C4F8003229
:1028D000AB601F4BC4F8083311E04FF4A4712046DD
:1028E000FFF7A2FF2B7B03BB05F10C070FCF01AE57
:1028F0000FC63B68336095F83030002BE6D0D4F833
:10290000C434C4F8C4349A075ABFC3F380035B00CD
:1029100001238DF8003095F830300BB985F82F3051
:10292000D5E90031684698479FE74FF40073C4F833
:10293000003240F20223AB6003F1CE73C4F80833D7
:10294000AB68C4F804330123A36023628DE700BFA2
:1029500002029C0101490248FFF76EBFDC400020E3
:102960000030004002494FF04020FFF765BF00BF34
:10297000104100202DE9F84F0579344C4FF0340A0E
:102980000AFB05FA04EB0A069B4696F82D308046B2
:102990000F469146002B55D12D4B006853F825105A
:1029A00000F07CFE00284FD139687B7B86F83230FE
:1029B00001F5E0724FF0A043B060C6F804B086F8AD
:1029C0002F0086F8300040F20C6644F80A9043F875
:1029D00022607A6802F5E07C43F82C60D8F8003079
:1029E000C3F80815C3F80C25BA68C3F82425B9F153
:1029F000000F1FD043F30733002B3A7BB5BF1549B7
:102A000003F1604103F00F0601F561414FEA421204
:102A1000D2B2B4BF8A5581F8002303F01F015B09CD
:102A20009B0003F1604303F5614301228A40C3F830
:102A300080211A60342303FB0544012384F82D30E0
:102A4000BDE8F88F0820FBE71120F9E7DC40002003
:102A5000E43B040014ED00E0036802790621C3F8AA
:102A60000015044B342101FB0233022283F82D2090
:102A7000704700BFDC40002001790B4B0268342016
:102A800000FB0133094900209860C2F80813D2F80E
:102A9000001221F4BC51C2F80012C2F80005012254
:102AA00083F82D20704700BFDC40002002029C010B
:102AB00070B506791A4D342373430446EB5863B15D
:102AC000036843F307335A09012103F01F039940B8
:102AD00002F12003134A42F823102046FFF7CCFFEF
:102AE000206800F0FBFD342303FB065393F83230DB
:102AF0007BB92068D0F808354FF0A04203F5E073A9
:102B0000022142F82310D0F80C3503F5E07342F8A7
:102B10002310342303FB0655002385F82D3070BDA8
:102B2000DC40002000E100E00279034B342101FB8E
:102B3000023393F82F007047DC4000202DE9F84362
:102B4000CB680779046803F06043B3F1005F0D467A
:102B5000904603D010252846BDE8F8838F4E904B51
:102B6000C4F808334FF0340C0CFB076C9CF82F3082
:102B70002BB1DCF80830C4F804331125EBE712F070
:102B8000140F0CBF012300238CF82F308946B9E8BD
:102B90000F000CF10C0EAEE80F00D9F80030CEF8A3
:102BA0000030C8F300138CF830306B78C4F88835E7
:102BB0004FF482712046FFF737FE4FF49271FFF712
:102BC00033FE18F0010318BF0123C4F8503518F084
:102BD000020318BF0123C4F840352A78032A00F203
:102BE000AD80DFE802F06F955302D5F8109009F040
:102BF0006043B3F1005FADD14FF48073E968C4F86E
:102C000000326B68C4F84415C4F848354FF4A87115
:102C1000FFF70AFE4FF4B071FFF706FE4FF4A47100
:102C2000FFF702FE01232362A360D4F85031002B8A
:102C3000FBD04FF4A8712046FFF7F6FDAB68594969
:102C4000C4F84495C4F84835342303FB07639960FE
:102C50004FF482710823002518F0080F03D1032ACE
:102C60001CBF0122E25034237B43F218F358002B9F
:102C700076D018F0040F1CBF4FF400739360342318
:102C800003FB07639B68C4F8043364E76B68E96877
:102C9000C4F84415C4F848352B6903F06041B1F11C
:102CA000005F7FF457AFA968C4F834354FF48453FC
:102CB000C4F83815C4F80032342303FB076340F22C
:102CC0000221C4E76B68E968C4F8441518F0200FC6
:102CD000C4F848354FF034030ED04FF4807103FB35
:102CE0000763C4F800122F4999604FF4A471FFF7ED
:102CF0009BFD01232362ADE74FF4007103FB0763E3
:102D0000C4F8001240F2022199604FF48271F0E79A
:102D10006B68E968C4F83415C4F838354FF480534B
:102D2000C4F80032342303FB076340F202219960A8
:102D3000012323624FF4827100238CE74FF48271E8
:102D40000823072588E7D4F8243153B14FF4927152
:102D50002046FFF769FD012323624FF4827163610E
:102D600021440B68002BEED03422D4F8C434C4F8CC
:102D7000C43402FB0766002286F82F20002B3FF4A4
:102D8000EAAE13F0020F48F2012508BF032513F045
:102D9000040F48F2022318BF1D46DCE6DC40002089
:102DA00002029C01000204000023435082B04358F9
:102DB0000193019B02B070471FB501238DF80030CD
:102DC000054B8DF8080001916846D3E90012904741
:102DD00005B05DF804FB00BF444100207FB5374AD1
:102DE000D2F82461002E47D010464FF49271FFF7BD
:102DF000DBFF02238DF80030D2F88034C2F8803433
:102E00000393D2F83C358DF808302D4BDA680192E7
:102E10000022C3E906226846D3E9001290472748FA
:102E2000D0F844316BB14FF4A271FFF7BDFF244BD2
:102E30009A6932B10022D0F83C05D9689A61FFF74F
:102E4000BBFF1E48D0F82031A3B14FF49071FFF7BB
:102E5000ABFF1B4B5A696AB1D0F84C158DF80810BE
:102E6000002299688DF8002001915A616846D3E9E3
:102E70000012904704B070BDD2F81031002BCED0B4
:102E80004FF488711046FFF78FFF0D4BD2F83C05C9
:102E900099698842C3D1DC69D96864B1D2F800521B
:102EA00025F02005C2F800521A699C61DA60DE61E3
:102EB000FFF782FFB3E79C61FAE700BF0020004004
:102EC000444100202DE9F047584D90F80480242318
:102ED00003FB0853814693F820300C469246002BA2
:102EE00040F09F805249006800F0D8FB0746002858
:102EF00040F099802368D9F80060591C0AD04FF03F
:102F0000A04101229A40C1F8082503F5E072032090
:102F100041F8220061684A1C1FBF01F5E0724FF0C2
:102F2000A0404FF0000C40F822C0A269C6F824254A
:102F3000207D627D012842EA0002C6F86C25C6F8B1
:102F40000C35C6F814151CD1A268501C1FBF02F521
:102F5000E0734FF0A041002041F82300E368591CC2
:102F60000BD04FF0A04001219940C0F8081503F59F
:102F7000E0714FF0030C40F821C0C6F80835C6F8E0
:102F80001025242303FB08F3EA18C2F804A02269E1
:102F9000EA50BAF1000F34D0D9F80000227F4FF484
:102FA0008871FFF701FF4FF49071FFF7FDFE4FF4BA
:102FB0009271FFF7F9FE4FF4A271FFF7F5FE1D4B7A
:102FC000C0F8043340F30733002BADBF03F1604179
:102FD000194903F00F0001F561414FEA4212D2B2E4
:102FE000B4BF0A5481F8002303F01F015B099B0062
:102FF00003F1604303F5614301228A40C3F8802155
:103000001A600823C6F80035242303FB0855002363
:10301000C5E906336B61012385F820303846BDE8E9
:10302000F0870827FAE71127F8E700BF444100209E
:10303000DD2D03001003020014ED00E00279044BC3
:10304000242101FB02335869003818BF0120704762
:10305000444100202DE9F84301F06043B3F1005FE3
:1030600005460F4690462FD1FFF7E8FF044668BBA0
:1030700095F80490174A2D68242606FB09264FF47C
:1030800090712846C6F81480B760FFF78DFE4FF4A4
:10309000AC71FFF789FE0123C5F84475C5F8488572
:1030A000AB607368A3B9D5F82031D5F85801034354
:1030B000F9D0242303FB092200284FF0000318BF96
:1030C0000F205361BDE8F8831020FBE71120F9E7DA
:1030D0002046F7E7444100202DE9F84301F0604322
:1030E000B3F1005F0E4667D10779344D242303FB0B
:1030F0000753D3F80480B8F1000F04D003684FF4ED
:103100000471C3F80813242303FB0753996969B1B9
:10311000D96900293ED0B8F1000F04D003684FF4FC
:103120000472C3F804231120BDE8F8839A61DE60BD
:1031300089462423046803FB07532046D9614FF4D2
:103140008871FFF731FE4FF4A271FFF72DFEC4F82E
:103150003465C4F83825B9F1000F20D1012323606C
:10316000B8F1000F22D1D4F81021D4F84431D4F8AA
:1031700024011A4302D10028F5D01346242202FB71
:1031800007550022904218BF03209342AA6118BF3E
:103190000F20C9E71E6111464FF00109C9E7D4F8B5
:1031A000003243F02003C4F80032D9E74FF404732F
:1031B000C4F804330020B7E71020B5E744410020ED
:1031C0000023435082B043580193019B02B07047E3
:1031D0000A4610B54FF48E71FFF7F2FF136A91683B
:1031E000C95C136A01331362C0F81C1510BD8B69EA
:1031F0000A4610B54FF4847123B9FFF7E1FFD0F808
:10320000183510BDFFF7DCFF536AD168D0F81805F8
:10321000C854536A01335362F3E700001FB501231A
:103220008DF80030044BCDE90110D3E90012684657
:10323000904705B05DF804FB6841002008B54FF4E5
:103240009271FFF7BDFF4FF48471FFF7B9FF0123BF
:10325000036008BD30B54C4DD5F804339A0585B0F0
:1032600051D5D5F82431002B4DD04FF4927128461A
:10327000FFF7A6FF4FF40173C5F80833434B93F8EB
:1032800029200AB901226A603F4902228DF80020F4
:10329000D1F88024C1F8802403929A690292DA68F6
:1032A00001920022C3E906226846D3E90012904742
:1032B0003548D0F81C315BB1344A136A5469A342D3
:1032C0004DD292F82830002B49D11146FFF780FFEC
:1032D0002D48D0F84431002B54D04FF4A271FFF7A1
:1032E0006FFF2A4B93F829200AB1012202609A69E4
:1032F000002A47D0586AD96800229A6105B0BDE813
:103300003040FFF78BBFD5F804335B07D0D5D5F835
:103310000831002BCCD01D4C1B482146FFF767FF1E
:10332000636AA2699A42C3D1E369E1684BB1A361C0
:103330002369E3600023606AE3616362FFF76EFF65
:10334000B6E794F829300BB901236B600E4B4FF4AC
:103350000172C3F808230023606AA361EEE70A48FC
:103360004FF48E71FFF72CFF002CB1D091680191C2
:1033700000238DF8003053610294D2E900136846AF
:103380009847A5E705B030BD002000406841002007
:103390002DE9F047554D90F804802C2303FB08538A
:1033A000814693F82A300C469246002B40F09980D3
:1033B0004F49006800F072F90746002840F09380FA
:1033C0002368D9F80060591C0AD04FF0A0410122AF
:1033D0009A40C1F8082503F5E072032041F8220065
:1033E00061684A1C1FBF01F5E0724FF0A0404FF02A
:1033F000000C40F822C0A269C6F82425207D627D19
:10340000012842EA0002C6F86C25C6F81415C6F871
:103410000C351CD1A268501C1FBF02F5E0734FF0A1
:10342000A041002041F82300E368591C0BD04FF065
:10343000A04001219940C0F8081503F5E0714FF054
:10344000030C40F821C0C6F80835C6F810252C2317
:1034500003FB08F3EA18C2F804A02269EA50BAF1A3
:10346000000F2CD0D9F80000227F4FF48E71FFF7A7
:10347000A7FE4FF4A271FFF7A3FE1E4BC0F8043362
:1034800040F30733002BADBF03F160411A4903F04D
:103490000F0001F561414FEA4212D2B2B4BF0A54A3
:1034A00081F8002303F01F015B099B0003F16043D7
:1034B00003F5614301228A40C3F880211A60042386
:1034C000C6F800352C2303FB08530022C3E906226B
:1034D00083F829205A61012283F82A203846BDE862
:1034E000F0870827FAE71127F8E700BF68410020B6
:1034F000553203008000020014ED00E00279044B15
:103500002C2101FB02335869003818BF0120704795
:10351000684100202DE9F84F074689469346FFF79A
:10352000EDFF044600283BD197F804801D4E2C2562
:1035300008FB056A4FF48E71CAF820008AF828004B
:103540003868CAF814B0CAF80890FFF739FE0123AA
:1035500083605146FFF73CFEDAF80430554663B10C
:103560002046BDE8F88F95F82830BBB9D0F81C315B
:10357000002BF8D05146FFF72BFE2A6A6B699A425E
:10358000F4D3D0F81C31002BFBD00123C360002002
:103590002C2303FB086600237361E2E70F20F7E7A3
:1035A0001120DEE7684100202DE9F843374C067909
:1035B0002C2303FB064305465F6827B103684FF4DD
:1035C0000170C3F808032C2303FB0643986950B12C
:1035D000D86900283DD027B12B684FF40172C3F899
:1035E0000423112033E09A61D960586202460146F3
:1035F0002C2303FB0643DA6193F82930286813B9BA
:1036000009B9FFF71BFEBFBB4FF4A2714FF02C08A6
:10361000FFF7D6FD06FB0847B8462868D0F82421F6
:10362000D0F80811D0F84431194315D1002AF4D04C
:1036300000232C2101FB06440021A1610ABB13BB1E
:1036400094F829102B680122A1B11A600020BDE86E
:10365000F88319610121CBE753EA0209E9D1394620
:10366000FFF7C5FDD8F82430D8F818209A42D4D8EE
:103670004A46DDE75A60E9E74FF40173C0F80433C6
:10368000E4E70320E3E70F20E1E700BF6841002003
:10369000014B1B68184700BF944100200D4B984216
:1036A00037B50C4611D100230DF107008DF8073016
:1036B00000F0DAF8084B1D7915B901221C601A7167
:1036C0009DF8070000F0F4F815B9002003B030BDF4
:1036D0001120FBE70020004094410020034B98425A
:1036E00001BF034B00221A601A717047002000408E
:1036F0009441002000F1804000F5E040002382B0BA
:10370000036003680193019B02B07047F0B5544B0E
:10371000544CD3F8043194F82E2085B0002B3BD0C4
:103720004FF48270FFF7E6FF2AB394F82F3013BBF3
:103730004B4AD2F80031002B32D04FF48070FFF7A3
:10374000D9FF638B94F82D00834250D921891B1A2D
:103750009BB289B26383CB1A616801EB4301C2F863
:103760002C16C2F830064FF48270FFF7C3FF3C4BB3
:1037700001225A6014E0636802932389ADF80C308B
:10378000E36800218DF8041033BB2374236801A87B
:103790009847002384F82F3094F82E30002BC7D19F
:1037A0002F4BD3F810315BB14FF48870FFF7A2FFB5
:1037B0000023237402238DF8043001A8236898475E
:1037C000274BD3F814310BB34FF48A70FFF792FFF5
:1037D0000023237405B0F0BD208B608363602081DB
:1037E000E160002AD2D11E4B01221A60CEE7BAD185
:1037F000E168012084F82F0031B100206083C2F815
:103800002C16C2F83036AEE76183ACE766694FF03C
:1038100000470125002EDDD0B6FA86F227FA02F322
:103820004632920026EA030602F1804303F5E043A4
:103830001B68002BEED01046A2F58C72FFF75AFFE2
:10384000D30882F00402C2F380028DF808308DF8AC
:10385000045023688DF8092001A89847DAE700BFD3
:10386000007000409C41002070B5EFF3108672B6E6
:103870000C4A9468012384B993600B4B0B4DD3F829
:10388000801029401160C3F88050D3F88410516033
:103890004FF0FF32C3F884202346037006B962B6A6
:1038A00070BD00BFCC41002000E100E0FC06FFBD80
:1038B000084B9A6810B55AB150B9EFF3108172B63F
:1038C000054A1C6814605C685460986001B962B66F
:1038D00010BD00BFCC41002000E100E01FB5002179
:1038E000039001AA44F20100CDE9011100F004F8AF
:1038F00005B05DF804FB000072B6094BD3F8F02068
:10390000D20700D500BEBFF34F8FD968054A01F436
:10391000E0610A43DA60BFF34F8F00BFFDE700BFED
:1039200000ED00E00400FA051EF0040F1CBFEFF3E9
:1039300009800AE0EFF308800549064A884201D869
:10394000904202D88D464FF00000034B184700000C
:1039500000F8002000D8002081390300BFF34F8F0A
:103960000549064BCA6802F4E0621343CB60BFF31B
:103970004F8F00BFFDE700BF00ED00E00400FA0537
:1039800008B5034B9A6ADB6AFFF7E8FF08BD00BF82
:1039900000ED00E010B5034653E8000F40EA0102D5
:1039A00043E8002494F0000FF6D110BD10B5034693
:1039B00053E8002F42EA010043E8000494F0000FAE
:1039C000F6D110BD10B5034653E8002F02EA0100FE
:1039D00043E8000494F0000FF6D110BD0121FFF779
:1039E000D9BF0021FFF7EEBF10B5034649B152B170
:1039F000541E14EA020006D1986019609C80D860B9
:103A000010BD0E20FCE70920FAE710B58468C268F3
:103A10008388121B934208D3C26813400268D154B2
:103A2000C3680133C360002010BD0420FCE7826836
:103A3000C3689A420AD08268838813400268D35CC4
:103A40000B70836801338360002070470520704746
:103A50000648074A03780749D35C012213B10430B2
:103A6000FFF73ABB0C30FFF79FBD00BF0C310020C1
:103A70000D400020F94100200648074A0378074915
:103A8000D35C012213B10430FFF7E4BA0C30FFF726
:103A900041BD00BF0C3100200D400020FA41002044
:103AA00037B50578012D05D0022D25D0002D2ED05B
:103AB00003B030BD43681D4C19782046FFF7A5FFC1
:103AC00078B18DF800500190194B68461B689847F3
:103AD000A168E368A2885B1A9A4209D3FFF7B8FF8E
:103AE000E6E7A268E3689A42F2D08DF80000EBE7BF
:103AF000104B01221A70DBE7C3688DF80050019368
:103B0000FFF7A6FF0A4B68461B689847D0E70A49AB
:103B10000A48FFF78CFF20B903B0BDE83040FFF73B
:103B2000ABBF03238DF80030ECE700BFE841002075
:103B3000FC410020F8410020FA410020D84100203B
:103B4000F0B51F46234B89B004461A600D46002984
:103B50003DD08A8820480968FFF746FF002834D105
:103B6000AA89A9681D48FFF73FFF00282DD11C4EE8
:103B70000FCE6D460FC596E80F0085E80F0063690C
:103B80000693237C174A18488DF81C70003B18BF19
:103B900001238DF81430637C002B0CBF00230E230F
:103BA0008DF81530E3680293A368039323680193AB
:103BB000694663680093FDF749FF30B90B4B1870F5
:103BC0002368013301D0FFF743FF09B0F0BD0720A0
:103BD000FBE700BFFC410020E8410020D841002065
:103BE000EC3B0400A13A03000C310020F841002016
:103BF00070B5084D014608482E78FFF718FF0446B7
:103C000036B100232B70FFF723FF08B1FFF766FEE4
:103C1000204670BDF8410020E841002010B5014663
:103C20000E48FFF7F2FE0446A8B90D480D4A037886
:103C3000D35C63B10430FFF701FA60B90A49074861
:103C4000FFF7F5FE38B9BDE81040FFF715BF0C309F
:103C5000FFF754FCF1E7204610BD00BFD84100201B
:103C60000C3100200D400020FA41002010DF704789
:103C700013B504460949684600F08AFC019808B962
:103C800002B010BDD0E900312046984718B168460F
:103C900000F086FCF2E71120F2E700BF243C0400AC
:103CA00013B504460749684600F072FC019B0BB946
:103CB00002B010BD2046D3E900219047684600F0CD
:103CC0006FFCF3E7183C04000B4991F81623EC2332
:103CD00052091341DB0706D5084B9A683AB94FF4ED
:103CE00080030B60704742F20200FFF7F7BD1A68CD
:103CF00042F480021A60704700E100E0CC410020ED
:103D0000F7B5194F3C7864BB184E01252046357035
:103D1000FFF7AEFF112821D02046FFF7C1FF144B5B
:103D20008DF80340186801900DF10300FFF79CFD2A
:103D3000104901A8FFF79AFF0446B0FA80F0400945
:103D400038709DF80300FFF7B3FD3CB90A4B34709F
:103D50001C70FFF7B9FF2846FFF7A2FF204603B00B
:103D6000F0BD0824FAE700BF024200200042002014
:103D7000303C0400F938030001420020014B187860
:103D8000704700BF0242002007B50849684600F0AE
:103D9000FFFB019B13B903B05DF804FBD3E90020DE
:103DA0009047684600F0FCFBF3E700BF0C3C0400C2
:103DB000FFF7EABF60DF704769DF704761DF704778
:103DC00030B5134DADF5017D4FF4FA740DF10201DC
:103DD00003A8ADF80240FFF7F1FF70B9294601A82A
:103DE00000F0D6FB029B002BF0D003A8D3E9002102
:103DF000904701A800F0D4FBF4E7052805D00DF5A5
:103E0000017DBDE83040FFF769BD0DF5017D30BD96
:103E1000343C0400024B1B780BB1FFF7D1BF704755
:103E200003420020F0B5064685B00D46002948D073
:103E30000024254A0A60CDE90144062301278DF8B4
:103E4000040001A92020ADF8083003948DF8067015
:103E5000FFF7B2FF2A68039401A94020CDE901448D
:103E60008DF80570FFF7A8FFF7232A68039401A9CE
:103E70002320CDE90144ADF806308DF80460FFF74A
:103E80009BFF02232A68039401A93846CDE9014427
:103E90008DF80430FFF790FF4FF4B0632A68019368
:103EA00001A9A120CDE90244FFF786FF2A68039407
:103EB00001A9A020CDE90144FFF77EFF204605B00F
:103EC000F0BD0E20FBE700BF0030002008B5FFF773
:103ED00071FF10B9014B01221A7008BD0342002086
:103EE0004BDF70471FB50E4C01A8FFF7F9FF70B903
:103EF000214602A800F04CFB039B002BF4D0019854
:103F0000D3E90021904702A800F04AFBF4E7052816
:103F100004D004B0BDE81040FFF7E0BC04B010BD11
:103F2000403C04006DDF704779DF70477DDF7047EC
:103F300064DF70472DE9F04F85B000260E9CBDF878
:103F40003CB0B4F800A00191074690461D46B1462A
:103F50003A884A4505DC002E37D1002005B0BDE87F
:103F6000F08F7A6852F82900039000220DF10B01BE
:103F700003A8FFF7DDFF0028F0D19DF80B20424594
:103F800020D1228886F0010002EB080101EB4001FC
:103F9000594524DC3EB9013292B2019B2280AB54D8
:103FA00022880132228022880DF10B012A4403A8C5
:103FB000FFF7BEFF0028D1D121889DF80B200A44CD
:103FC0002280012609F10109C2E72388013BA3EB06
:103FD0000A039BB2FF2B02D805F80A30BDE70C207C
:103FE000BCE72DE9F341089FBDF824801546CDE9D3
:103FF0000078022204461E46FFF79CFF50B9334664
:10400000102229462046CDE9087802B0BDE8F041EB
:10401000FFF790BF02B0BDE8F0812DE9F04F00231B
:104020001788138090F82D3085B006460D4614464B
:104030005BB3082F40F2B28102A8FFF773FF00289C
:1040400040F0E2802388DDF809100822EA54238832
:1040500001339BB21B222380EA54238801339BB295
:10406000EA182380E950BDF80D30938023889DF82D
:10407000082006339BB2012A88BF0122238094BF07
:10408000E854EA54238801332380B37803B32388A8
:104090000433BB4200F2828102A8FFF745FF0028EB
:1040A00040F0B28023880322EA54238801339BB274
:1040B00019222380EA542388BDF8082001339BB2DB
:1040C000E9182380EA54120A4A70238802332380B5
:1040D000F278A2B12388D91CB94200F25F81022193
:1040E000E954238801339BB201212380E9542388BA
:1040F0000B449BB22380EA5423880B4423807368CB
:10410000B3B193F900202388D91CB94200F246814B
:104110000221E954238801339BB20A212380E95408
:10412000238801339BB22380EA5423880133238000
:104130003389002B5DD1338A53B1CDE900472B463B
:104140000722032106F11000FFF74BFF00285BD187
:10415000338B53B1CDE900472B461522142106F1CC
:104160001800FFF73EFF00284ED1326A002A4ED1D8
:10417000D6F82480B8F1000F31D0B8F80430218887
:10418000981C8A1C0244BA4200F20881FE2800F200
:10419000058103336B54238801339BB2FF222380B4
:1041A000EA54238801339BB22380B8F80020EA54F4
:1041B000E918120A4A702088023080B22080B8F8CC
:1041C000042062B1D8F80810002900F0E9802844E2
:1041D0000CF0DEFF2388B8F804201344238096F8FF
:1041E0002C30002B59D13378002B40F097800020E1
:1041F0000AE0CDE900472B460622022106F108001D
:10420000FFF7EFFE002896D005B0BDE8F08FB4F8B8
:1042100000C00CF10603BB4200F2C08011880529E2
:1042200040F2BE806FF4486E01EB0E039BB24FF27A
:104230007D3E734540F2B4805388052B40F2B08038
:104240006FF44860181880B2704540F2A9804FF6AC
:10425000FF70814202D0994200F2A280052305F846
:104260000C30238801339BB212212380E954238828
:1042700001339BB223801188E954E818090A417080
:10428000238802339BB223805288EA54E918120A29
:104290004A702388023323806AE7B36A002B7FD0F9
:1042A0004FF000094FF00C0A4FF0160B96F82C3027
:1042B0005FFA89F2934296D9B16A0AFB02F201EBE6
:1042C0000208B8F80430981CFE2867D82088033309
:1042D0002B54238801339BB2238005F803B0238835
:1042E00001339BB223808A5AEA54E918120A4A70B1
:1042F0002088023080B22080B8F804205AB1D8F863
:10430000081000294CD028440CF042FF2388B8F84C
:1043100004201344238009F10109C7E73288012AE8
:104320003ED02288901CB84238D8012B04D1737833
:10433000023313449F4231D3023FBF1ABFB202A9D6
:104340002844ADF80870FFF7F1FD00287FF45CAF5A
:104350003278BDF80830022A1CD07178994201D316
:10436000BB4219D9012A02D18F4228BF0F46ADF8AE
:1043700008700821BDF80830FE2B0FD822880133C1
:10438000AB542288013292B22280A954228813446D
:1043900023802CE7BB42EAD80921EBE70C2033E766
:1043A000072031E770B5C8B14AB115880024AC4286
:1043B00007D3061976789E4203D1A14209D800207E
:1043C0000CE0A142FBD9065D013416FA84F4A4B2D4
:1043D000EDE7A31C1380005D013880B270BD13B5FA
:1043E00013460022ADF806200DF106020446FFF741
:1043F000D9FF10B1BDF80600204402B010BD90DF17
:104400007047A5DF7047B5DF70471FB50023ADF8D3
:104410000810ADF80A106A4602A903930093ADF89C
:104420000430FFF7ECFF05B05DF804FB80B14FF0FE
:10443000F7130360FB230371F723C3801723038162
:1044400041F6FB32002301614381828118467047A7
:104450000E20704730B1A1F11703E02B04D8018082
:10446000002070470E2070470720704713B50346A1
:1044700080880C4698B91A88242A76D011D8112A37
:1044800052D0232A7ED0102A2BD0A37A3BB1E188C8
:104490000020FFF7B6FF10B94FF48073638102B0BC
:1044A00010BD3A2A49D0552AEFD1DB88C988A072BD
:1044B000172B38BF17238B4228BF0B462381FFF7EA
:1044C000A2FFE37A002BE0D12369002BDDD040F678
:1044D000772200922289ADF8042069462046984749
:1044E000D3E7DB7B0A790A73012B13D0022B14D09C
:1044F000E18823898B4205D20020FFF782FF70B943
:104500000123E372217B637B8B42BED20020FFF745
:104510007CFFBAE70B88E380EAE74B88FBE71128CA
:1045200004BF0123A372EDE7F723CB8017230B8190
:1045300041F6FB3348818B81A7E75B89CA889342A8
:1045400028BF1346172B0A6938BF17230B814AB1BE
:10455000C97A39B140F677210091ADF80430694647
:1045600020469047002363818FE71A7A0B694A73CC
:10457000002B8AD04DF67A218DF8050000918DF838
:104580000420AAE7197A237B994228BF1946BEE77F
:10459000D1E90032934208BF0023016043607047B5
:1045A000436843B10268916852680B449342436088
:1045B00004BF0023436070476DDF704776DF7047AC
:1045C00077DF70477ADF70477CDF70477FDF7047A7
:1045D0008FDF7047A8DF7047AADF7047B0DF7047F2
:1045E000B1DF704762DF7047014B5B68184700BF5F
:1045F00020430020704770477047FFF76FB90000F5
:104600000388212B07B52BD008D8112B1ED0132BD4
:1046100032D0102B0DD003B05DF804FB522B33D0F9
:10462000562B01D03B2BF6D113218088FFF7C6FF14
:1046300005E0194B81881948198005F00BFA00280C
:10464000E9D003B05DF804EBFFF748B9124B4FF621
:10465000FF721A80124A00231370124A1370DAE7AD
:1046600000238088ADF8043001A9FFF7B1FF0028CE
:10467000D1D0FFF733F9CEE7074800231A4685214A
:104680000088FFF7A3FFDAE7034800231A4619461C
:104690000088FFF7A5FFD2E72C310020FC46002060
:1046A000653D0020643D002010B50C7814B1012C4C
:1046B00012D010BD0C4B01221A700C4B5B6898474E
:1046C0000B4822464FF4C02105F076FC0028F0D0BC
:1046D000BDE81040FFF702B9034B054800221A70ED
:1046E00005F0B2FCF2E700BF643D0020204300204B
:1046F0005843002007B50378032B10D8DFE803F0F8
:1047000002121519838A01690B48019301AA05F069
:104710008DFE20B9094A019913680B44136003B058
:104720005DF804FB064B002201E0064B01221A70E3
:10473000F5E7044BF7E700BF503C0400504300206E
:1047400054430020653D002030B5044689B041B196
:1047500038B10388502B4ED005D8102B43D0112BE5
:1047600045D009B030BD512BFBD1428942F66E23B2
:104770009A42F6D1102200210DEB02000CF0E1FB71
:10478000284B00251B688DF807500DF1070102A882
:104790009847DDED027A9FED247A67EE877AFDEE89
:1047A000E77A17EE903A23F07F4343F07E4303937A
:1047B000A379012BD5D18DF810309DF80730ADF8D5
:1047C0001A3003AB07939DF81630A088ADF814504B
:1047D00043F001038DF8163004A9E389ADF81830D1
:1047E000FFF7FCFEBDE78288104BDA81B9E70F4B7B
:1047F0004FF6FF72F9E70D4DC2886B899A42B0D12E
:10480000038A022BADD12B68002BAAD0123004F002
:10481000B7FE80F001008DF810002B6804A928462F
:1048200098479EE7204300200000C8420442002031
:10483000094B4A881B889A420DD10A8840F6772393
:104840009A4208D18B88054805490068033B9BB212
:1048500001220CF023B970472C3100201C420020AB
:1048600020420020FFF73AB808B508490848FFF78A
:10487000DDFD08B1FFF732F80548F721FFF7EAFD43
:1048800018B1BDE80840FFF729B808BD314803005A
:10489000084700202DE9F043AE4D03682B604368C4
:1048A0006B608368AB60C3B090F90C302B7305F07C
:1048B00041FB28B9A84AA948012105F06BFB08B1C2
:1048C000FFF70CF8FFF71CFA08B1FFF707F8002311
:1048D00017A901201793FFF7A5FA08B1FEF7FEFF0D
:1048E00017A8FFF7F3FA08B1FEF7F8FFAB687BB93A
:1048F00017A8FFF761FE58B9994C9DF85D300093F9
:10490000984A9DF85E30984920460CF07BF9AC60DF
:10491000AC68112320468DF848300CF047FC214646
:1049200082B212A8FFF750FE08B1FEF7D7FF0023AE
:10493000ADF860308D4B179317A84FF4C873ADF8DE
:104940006230FFF73FFE08B1FEF7C8FFFFF78CFFAC
:10495000002110220AA80CF0F4FA854B8548059333
:1049600005A905F065F808B1FEF7B8FF824B83484A
:10497000049304A904F068FB08B1FEF7AFFF00231D
:10498000099341F211137E4EADF8243011238DF8B6
:1049900026307C4B089333604FF6FF73F3817A4BDC
:1049A0000EAA03F1100C174618685968144603C480
:1049B000083363452246F7D174493846FFF712FEA3
:1049C0000446002851D1337C8DF81A30704A41F6E4
:1049D0001A0306A90120ADF81830FFF7FBFD0446C5
:1049E000002842D101461C228DF80A0017A89DF824
:1049F00025909DF826800CF0A4FA41F21113ADF831
:104A000008309DF80A30B088012262F342038DF825
:104A10000A309DF85C30CDF8524043F002038DF827
:104A20005C30337C8DF81E3042F66E23ADF81C30BE
:104A30000B238DF80E3007AB129303AB13930823AF
:104A400002AFADF85030ADF8543012AA514BCDF84A
:104A5000564017A9ADF85A401C978DF80C908DF868
:104A60000D80FFF7B9FD044610B12046FEF736FF72
:104A70000023CDE90B33484B0A9301238DF82C30EA
:104A800003F10133623345480D930AA904F0B3FBE7
:104A900008B1FEF723FF0021AC2217A80CF051FA51
:104AA00002238DF85C3006238DF85F300323ADF8C8
:104AB000A8303B4B2B9301238DF8D83040233993FA
:104AC0003848394B409317A905F0EBFA08B1FEF7C7
:104AD00005FF3448012105F0E1FA1422002117A84E
:104AE0000CF02FFA4FF470234FF42032CDE9182345
:104AF00003238DF868302D4B1C9317A82C4B1D9366
:104B000004F02AFF08B1FEF7E9FE2648032105F06C
:104B100045FB08B1FEF7E2FE224B95F90C2093F815
:104B200054100120FFF74CFD08B1FEF7D7FE2149D4
:104B300021480BF001FF214B214918601E480BF062
:104B4000FBFE204B1860204843B0BDE8F04305F061
:104B500064BC00BF20430020E94503004C3C040036
:104B60003043002098300400A830040006000800FC
:104B7000FB450300FC460020F546030030310020D1
:104B800004420020F54503005C3C04001442002070
:104B9000084200200A420020A94603009044002059
:104BA00020310020A4440020F9450300F74503000C
:104BB00065480300B63004008F3004001C4200201A
:104BC0001436040018420020503C040073B5094D0F
:104BD000094E019104462B8801AA2146304604F073
:104BE000AFFA132802D106F03DFAF4E7019802B0BB
:104BF00070BD00BF2C3100203031002007B501917D
:104C000001AA0146094805F04EFC60B90198084B1D
:104C100028B11A68121A1A6003B05DF804FB186014
:104C20004FF0FF30F8E70020F6E700BF503C0400EB
:104C300050430020014608B54FF6FE72034804F0C9
:104C400049FB003818BF0120404208BD90440020B5
:104C500058B143684BB183683BB1C3682BB140780E
:104C6000B0FA80F04009404270474FF0FF30704783
:104C7000F8B5054618461C46FFF7EAFF58B951B18A
:104C800062B1A66863782846B0470028A07018BFB4
:104C90006FF00100F8BD4FF0FF30FBE76FF004004C
:104CA000F8E713B504460191FFF7D2FFF8B90122E6
:104CB000234601A91046FFF7DBFFB0B923460122C6
:104CC0000DF105010220FFF7D3FF70B92346012241
:104CD0000DF106010320FFF7CBFF30B92346012277
:104CE0000DF107010420FFF7C3FF02B010BD4FF024
:104CF000FF30FAE707B50246FFF7AAFF58B9C52308
:104D00008DF8043001A9134640200122FFF7B0FFBF
:104D100003B05DF804FB4FF0FF30F9E713B504462C
:104D20008DF80720FFF794FFE8B901290FD0022979
:104D300005D091B12046FFF7DDFF02B010BD23463C
:104D400001220DF107011020FFF792FFF2E70A465A
:104D500023460DF107012120F6E7234601220DF13C
:104D600007013220F0E74FF0FF30E6E770B5054667
:104D700018461C46FFF76CFF50B949B16668637866
:104D80002846B0470028A07018BF6FF0010070BD22
:104D90004FF0FF30FBE713B5002304468DF80730D2
:104DA000FFF756FF80B9012223460DF10701104697
:104DB000FFF7DCFF30B9012223460DF10701104651
:104DC000FFF756FF02B010BD4FF0FF30FAE710B505
:104DD0000246FFF73DFF044620B9D36808469847CE
:104DE000204610BD4FF0FF34FAE737B50546FFF710
:104DF0002FFF80B9C5238DF8043001A92B4601226D
:104E00004F20FFF735FF322104462846FFF7DFFF2A
:104E1000204603B030BD4FF0FF34F9E713B500234F
:104E200004468DF80330FFF713FFD0B92346012263
:104E30000DF10301FFF79AFF88B99DF80330CE2BDF
:104E400012D123702046FFF7D0FF40B9142120462D
:104E5000FFF7BDFF40F207712046FFF722FF02B0C7
:104E600010BD4FF0FF30FAE76FF00500F7E758B1DB
:104E700043684BB183683BB1C3682BB10078B0FA8B
:104E800080F04009404270474FF0FF307047F8B55E
:104E9000054618461C46FFF7EAFF58B951B162B102
:104EA000A66823782846B0470028A07018BF6FF086
:104EB0000100F8BD4FF0FF30FBE76FF00400F8E7AA
:104EC0001FB504460191FFF7D2FFA8B99DF8043041
:104ED0009DF805201A439DF806301A439DF80730C7
:104EE0001A438DF80F20234601220DF10F010320F4
:104EF000FFF7CDFF04B010BD4FF0FF30FAE71FB54C
:104F000004460191FFF7B3FFA8B99DF805309DF85D
:104F100004201A439DF806301A439DF807301A43BF
:104F20008DF80F20012223460DF10F011046FFF7E7
:104F3000AEFF04B010BD4FF0FF30FAE71FB56B466F
:104F400083E806000446FFF792FFC0B99DF80130E0
:104F50009DF800201A439DF802301A439DF8033053
:104F60001A439DF804301A438DF80F20234601227E
:104F70000DF10F010220FFF78AFF04B010BD4FF0C2
:104F8000FF30FAE71FB504460191FFF770FF90B9B3
:104F90009DF804309DF805201A439DF806301A4309
:104FA0008DF80F20234601220DF10F010420FFF799
:104FB0006EFF04B010BD4FF0FF30FAE707B50246B0
:104FC0008DF80710FFF753FF48B913460DF107019D
:104FD00001220520FFF75BFF03B05DF804FB4FF0F3
:104FE000FF30F9E71FB504460191FFF740FF90B984
:104FF0009DF805309DF804201A439DF806301A43A9
:105000008DF80F20234601220DF10F010720FFF735
:105010003EFF04B010BD4FF0FF30FAE71FB56B46FE
:1050200083E806000446FFF722FFC0B99DF801306F
:105030009DF800201A439DF802301A439DF8033072
:105040001A439DF804301A438DF80F20234601229D
:105050000DF10F010820FFF71AFF04B010BD4FF04B
:10506000FF30FAE71FB50246ADF80410FFF7FFFE68
:1050700080B99DF805109DF804300B438DF80F3072
:105080000DF10F01134609200122FFF700FF05B0C3
:105090005DF804FB4FF0FF30F9E7F8B50646184617
:1050A0000D461C46FFF7E3FE78B971B123786768B7
:1050B0003046B847A0702B78002818BF6FF0010069
:1050C000FF2B08BF6FF00600F8BD4FF0FF30FBE785
:1050D00037B5002305460C468DF80730FFF7C7FEAD
:1050E000B0B901222B460DF10701FFF7D6FF0246AA
:1050F00058B99DF8073001221C430DF107012B46DA
:105100008DF80740FFF7C3FE0246104603B030BDDE
:105110004FF0FF32F9E713B5002302460C468DF835
:105120000730FFF7A4FED8B913460DF1070101229D
:10513000FFF7B3FF90B99DF807309A092270C3F3C7
:1051400000126270C3F3C002A270C3F38002E27067
:10515000C3F3400203F001032271637102B010BD7A
:105160004FF0FF30FAE713B50446FFF780FEA0B911
:105170002346012201A90920FFF78FFF58B99DF8A6
:10518000043063F07F038DF804300122234601A927
:105190000920FFF77CFE02B010BD4FF0FF30FAE7A8
:1051A000F0B58BB0002305468DF8033008AE0893A8
:1051B0008DF824300593FFF75AFE00285BD12B466B
:1051C00001220DF10301FFF768FF074600284FD1C8
:1051D0002846FFF7C8FF002850D139462846FFF778
:1051E00077FF782104462846FFF7E8FE4FF4A463D2
:1051F000ADF8043001992846FFF734FF4FF43251DF
:1052000004432846FFF75CFE4FF42253ADF8083004
:105210008DF80A7064B2029904432846FFF7B2FE83
:105220004FF42053ADF80C308DF80E7064B2039932
:1052300004432846FFF7D6FE64B24FF401138DF8FD
:105240001C701946079A069304432846FFF7E6FEAA
:1052500064B296E8060004432846FFF76FFE64B286
:10526000044305992846FFF74AFE64B2044367B237
:1052700038460BB0F0BD4FF0FF37F9E76FF0050788
:10528000F6E710B50246FFF7F2FD044620B9D368F1
:1052900008469847204610BD4FF0FF34FAE710B596
:1052A0000246FFF7E4FD044628B913695170084629
:1052B0009847204610BD4FF0FF34FAE7F0B585B0AF
:1052C000002304468DF80330FFF7D1FD0E46054656
:1052D00000284AD1012120466778FFF7E0FF4FF40C
:1052E000C463ADF8043001992046FFF7BBFE4FF4CC
:1052F0002253ADF808308DF80A5002992046FFF786
:1053000041FE1B4903912046FFF7DAFD01222346A7
:105310000DF103011046FFF7C0FE054660B99DF888
:105320000330DA093270C3F380127270C3F3401293
:10533000C3F30013B270F37000238DF80E3003999D
:105340002046FFF7BDFD05238DF80530019906467F
:105350002046FFF787FE06433543394620466DB2A7
:10536000FFF79DFF284605B0F0BD4FF0FF35F9E788
:10537000802C0200F7B580238DF806300023054607
:105380000C468DF80730FFF772FD002845D101214A
:1053900028466E78FFF783FF2B4601220DF10601A8
:1053A0000A20FFF774FD40B16FF00107314628462F
:1053B000FFF775FF384603B0F0BD2B4601220DF113
:1053C00007010A20FFF769FE07460028ECD19DF887
:1053D0000730C3F34112022AC3F382030ED0032A1B
:1053E0000ED0012A0CBF46223C22013B062B0AD8D4
:1053F000DFE803F0080B0D0D0F0F11005022F4E74A
:105400005A22F2E702322270D0E70432FBE706327A
:10541000F9E70832F7E70A32F5E74FF0FF37C9E757
:10542000F0B585B00546FFF722FD074600285AD1A2
:105430002E7D002E41D101212846FFF730FF4FF489
:10544000C463ADF8003000992846FFF70BFE4FF417
:105450002253ADF804308DF80660019904462846C1
:10546000FFF790FD2149029104432846FFF728FDEC
:1054700064B2044303A92846FFF720FF0199284698
:10548000FFF780FD05238DF8013064B200990443D5
:105490002846FFF7E7FD64B28DF80A6002990443DD
:1054A0002846FFF70DFD64B2044364B23146284636
:1054B000FFF7F5FE204605B0F0BD012E13D14FF4E5
:1054C0002253ADF804308DF8060001992846FFF705
:1054D00059FD4FF4325104462846FFF7F1FC0443CE
:1054E00064B23946E3E74FF0FF34E3E7802C020073
:1054F00073B50546FFF7BBFC0646C0B94FF4325101
:105500002846FFF7DDFC4FF42253ADF800308DF84C
:105510000260009904462846FFF734FD0121044348
:10552000284664B2FFF7BBFE204602B070BD4FF0C4
:10553000FF34F9E708B5034B01211878FBF75CF954
:1055400040B208BD2047002013B592B20092024637
:1055500004480C46007819462346FBF76FF902B061
:1055600010BD00BF2047002013B592B20092024642
:1055700004480C46007819462346FBF7C5F902B0EB
:1055800010BD00BF20470020FAF7E4BE012208B595
:1055900011461C20FBF7A2FC40B208BD012808B54B
:1055A00002464FF0010128BF01221C20FBF796FCA8
:1055B00040B208BD07B50C4B0C4918700B600123B5
:1055C0004B6001AB00228B600948ADF80420022338
:1055D000CB60FCF79FFF10B106480BF04FFA9DF827
:1055E000050003B05DF804FB214800202849002095
:1055F0006C3C0400B83004002DE9F041124E144612
:1056000080460F464FF48272002130461D460BF053
:1056100098FC30462246394600F8018B0BF0B8FD65
:105620000A49BDF818300A480E6001340022C1E969
:105630000145CB60FCF76EFF18B106480BF01EFA6F
:105640000320BDE8F08100BF214800202849002048
:105650006C3C0400D830040037B5002405460094A3
:105660002346224621460620FFF7C6FFB5F5001F58
:105670002ED2194B4FF48272214618460BF061FC72
:105680002022164902702A0C42702A0A8270C570C4
:10569000086004231248CC602246C1E90134FCF7BB
:1056A00039FF28B10F480BF0E9F9032003B030BDF2
:1056B0000520FFF77FFFC307FAD42B20FFF77AFFFF
:1056C00010F0600F06D008480BF0D8F90820EDE77D
:1056D0000120EBE70720E9E72148002028490020C6
:1056E0006C3C0400F33004001131040038B5036A47
:1056F0008B4205460C4602D20720FEF7EFF8E86918
:105700006043FFF7A9FF002038BD00002DE9F341F9
:10571000002407460E46154600942346224621469D
:105720000620FFF769FF002F3AD0731EFE2B27D803
:10573000B5F5001F36D2DFF884804FF48072214621
:1057400040460BF0FEFB184B4FF482722146184680
:105750000BF0F7FB0322154902702A0C4270042358
:105760002A0A8270C1E90138C5700860F318104830
:10577000CB602246FCF7CEFE30B10E480BF07EF92E
:10578000032002B0BDE8F0810520FFF713FFC30737
:10579000FAD40949324638460BF0FAFC0920F0E702
:1057A0000220EEE70120ECE72148002028490020F4
:1057B0006C3C0400213104002547002021470020D3
:1057C000F8B516461F46D0E907328A4205460C4610
:1057D00004D301FB03615A43914202D90720FEF72B
:1057E0007DF8EA69069902FB04623846FFF78EFFEE
:1057F0000020F8BD2DE9F341002480460D461746F0
:1058000000942346224621460620FFF7F5FEB8F114
:10581000000F2DD075B3B7F5001F2DD2174E4FF4E2
:105820008272214630460BF08CFB022333703B0C16
:105830002A46737041463B0A301DB370F7700BF077
:10584000A7FC0F490F480E6004352246C1E90154F8
:10585000CC60FCF75FFE10B10B480BF00FF9052090
:10586000FFF7A8FEC307FAD40C2002B0BDE8F08110
:105870000220FAE70320F8E70120F6E7214800209C
:10588000284900206C3C04003C310400F8B5164661
:105890001F46D0E907328A4205460C4604D301FB75
:1058A00003615A43914202D90720FEF717F8EA69CB
:1058B000069902FB04623846FFF79CFF0020F8BD02
:1058C000114B13B59021197010490022DA700B604A
:1058D000042304464B600E4800920623ADF80420D2
:1058E000C1F808D0CB60FCF715FE28B109480BF0D1
:1058F000C5F8032002B010BD9DF8043023709DF858
:1059000005306380F6E700BF2148002028490020C9
:105910006C3C04005B31040007B5002300931A4679
:1059200019469920FFF768FE0520FFF743FEC307DD
:10593000FAD403B05DF804FB002070471FB50024C3
:1059400023462246214600940620FFF755FE2346B3
:105950002246214600946620FFF74EFEFFF7DCFF4B
:1059600023462246214600940620FFF745FE03A861
:10597000FFF7A6FF204604B010BD000010B5037865
:10598000012B21D0022B17D0ABB9124C2046FEF7C9
:105990002FF9114B11491A88207892B288541A882D
:1059A00040F2FE3192B28A429DBF1A88013292B211
:1059B00040F2FF321A8010BD4068FDF78FFF0848A3
:1059C000BDE810400BF05AB84068FDF787FF054866
:1059D000F6E700BF3C4F00203A4B00203C4B002034
:1059E000783104008F31040010B500388AB018BF38
:1059F00001200B46092411461422CDE904428DF8FA
:105A00002030144A8DF821000023002009F07AFF8D
:105A1000114B124A009300F500604FF480736FF34E
:105A20000B00CDE9022309900D4A01936946032337
:105A300004A8FEF785F8049B4FF0A04203F5E0733D
:105A40000C2142F82310044608B1FDF747FF204619
:105A50000AB010BD0024F400384A00203849002064
:105A60007D590300F0B5124B124DDFF84CC00646CD
:105A700000241F882A88BFB292B29742A0B206D9EA
:105A800019882A8889B292B291420DD2F0BD814222
:105A9000F6D91A8892B21CF8022032551A880132BF
:105AA00092B21A800134E4E700221A802A80EDE7DE
:105AB000384B00203A4B00203C4B002038B50446C0
:105AC0004518AC4201D1002005E014F8010BFEF7A7
:105AD000A5F80028F5D038BD30B50C4D0A449142E8
